:080AA600011E00011F00C10048
:1004B600120800120B518E2D8F2E120924A295922E
:1004C600031208878F1FE51FB40102051EE51FB43E
:1004D6000202B200E51ED394034003120AFAC3E5F2
:1004E6002E94DEE52D940D50031206E0C3E52E94FE
:1004F600B8E52D940B50081206E0120AFA804EE574
:100506001E120318051A00054601054B0205500385
:040516000000055389
:10051A00752F0053DEFD752F00E52FC394C85004D4
:10052A00052F80F5AF2EAE2D1208D9752F00E52FB5
:0C053A00C394C85004052F80F5751E0105
:100546001209A8800843DE028003120AFA7F007EA1
:1005560002120A3F4009A2009204120AC65018125B
:100566000966120B518E2D8F2EA2009205AF2EAE6C
:100576002D120640120924A2AF9201C2AF75C7AA76
:0D05860075C75543AA40A20192AF0204C3FD
:010593002245
:10080000C29175B10075B20075B30075B40075ACD6
:100810000075AD0043B32053B4DF53B3FE43B401BE
:1008200053B3FD43B40243B30453B4FB43B308438F
:10083000B40843B31043B41043B10153B2FE43B103
:100840000253B2FDA2AF9201C2AF75C7AA75C755D8
:1008500043AB04A20192AFA2AF9201C2AF75C7AA87
:1008600075C75543AB02A20192AF438901438E087D
:10087000438910438E10D2DC20DCFD75D96475D11C
:070880000075DB3CD2DF2212
:060AAE00C102023200004B
:10088700753000753100A203300201B340057F00C7
:1008970022803C20023130032E1200038E308F312C
:1008A700D202C3E53194E8E530940340057F022284
:1008B700801DC3E531941EE530940040057F012279
:1008C700800D7F00228008C202120B3B7F00227F2F
:0108D7000020
:0108D80022FD
:100AC600A204E4FE33FFEF65337003EE6532600C7B
:0D0AD600A204E4FE33FF8E328F33D322C31F
:010AE30022F0
:0B0B3B00C28C758C00758A00D28C22E1
:10000300752100752200752300752400C28CAF8C06
:100013007E00EF7F00FEAD8A7C00EF2DF522EE3CE3
:10002300F521AE21AF227C007D0A1202B58E238F0B
:0500330024AE23AF2400
:0100380022A5
:100AB40002110000021300000115000116000117C5
:010AC4000031
:10077600E5124511700712033E8E118F1243E808E9
:1007860053E8F843E101120AE4C2EFD2EE30EFFD7E
:10079600AFC37E00EF75F010A4FFAEF0ADC27C00D3
:1007A600EF2DF519EE3CF51853E1FEAC18AD19E442
:1007B6001201E9A804A905AA06AB077F007EF07D11
:1007C6007F7C45120147C004C005C006C007AC11B6
:1007D600AD12E41201E9A804A905AA06AB07D007E1
:1007E600D006D005D00412003E8F1D8E1C8D1B8CAA
:0907F6001AAF1DAE1CAD1BAC1ABC
:0107FF0022D7
:10033E00A2AF9201C2AF75C7AA75C755439F01A25E
:10034E000192AF75AF0475A60D75A700A2AF92010D
:10035E00C2AF75C7AA75C75543A401A20192AF8556
:10036E00AE08E50854F0F509E5096480705C5308A1
:10037E000F75A60C75A700A2AF9201C2AF75C7AAE2
:10038E0075C75543A401A20192AF85AE0AAF0A7E8E
:10039E0000EF75F010A4FFAEF0AD087C00EF2DF568
:1003AE000CEE3CF50BAE0BAF0C7C007D031202A3E2
:1003BE00EF7802CEC313CE13D8F9F5108E0FE510D9
:1003CE0024DFF50EE50F34FFF50DE50970505308E7
:1003DE000F75A60C75A700A2AF9201C2AF75C7AA82
:1003EE0075C75543A401A20192AF85AE0AAF0A7E2E
:1003FE0000EF75F010A4FFAEF0AD087C00EF2DF508
:10040E000CEE3CF50BAE0BAF0C7C007D031202A381
:10041E00EF7802CEC313CE13D8F9F50E8E0DE50983
:10042E006490706C75A60E75A700A2AF9201C2AF54
:10043E0075C7AA75C75543A401A20192AF85AE0A2E
:10044E0075A60F75A700A2AF9201C2AF75C7AA75A8
:10045E00C75543A401A20192AF85AE0853080FAF52
:10046E000A7E00EF75F010A4FFAEF0AD087C00EF31
:10047E002DF50CEE3CF50BAE0BAF0C7C007D031294
:10048E0002A3EF7802CEC313CE13D8F9F50E8E0D5C
:10049E00A2AF9201C2AF75C7AA75C755539FFEA2F0
:0704AE000192AFAE0DAF0E8D
:0104B5002224
:100AE400753800E538C39403500BC2EFD2EE30EFF3
:050AF400FD053880EE55
:010AF90022DA
:040A3F008E348F352D
:100A4300C3E5149535E5139534500A0514E5147080
:0E0A53000205138008751300751400D322C32A
:010A61002272
:070B510012077612022222B6
:040640008E258F264E
:10064400752700752800C3E52694DEE525940D4042
:1006540003300544E5262494F528E52534F8F527E8
:10066400AE27AF287C007D211202B58E278F28ACDF
:1006740027AD287E057FDC1202B58E278F28AFD9DF
:100684007E00AC27AD281202A37C007D641202B563
:100694008FDB75D300D2DE22E52624FEF528E5257E
:1006A40034F7F527AE27AF287C007D211202B58EE2
:1006B400278F28AC27AD287E0F7FA01202B58E2786
:1006C4008F28AFD97E00AC27AD281202A37C007D11
:0B06D400641202B58FDB75D300D2DE8C
:0106DF0022F8
:1008D9008E368F37D3E53794ACE536940D40031245
:1008E9000A62D3E5379438E536940E4003120A625A
:1008F900D3E53794BAE536940E4003120A62D3E57C
:10090900379446E536940F4003120A62D3E53794CB
:0B091900D2E536940F4003120A622260
:100A620043DE02753900E539C39496500405398096
:100A7200F553DEFD753900E539C394965004053906
:020A820080F5FD
:010A8400224F
:10092400759500A2AF9201C2AF75C7AA75C75543AA
:100934009604A20192AFA2AF9201C2AF75C7AA7585
:10094400C7555396FDA20192AFE59720E0FBA2AFF5
:100954009201C2AF75C7AA75C7555397DFA201921A
:02096400AF22C0
:10096600A2AF9201C2AF75C7AA75C755439720A219
:100976000192AFE59720E0FBA2AF9201C2AF75C727
:10098600AA75C7555396FBA20192AFA2AF9201C2B8
:10099600AF75C7AA75C7555396FDA20192AF759557
:0209A60000222D
:100B0E00208F02C322308F06C28EC28FD322C32201
:040A12008E298F2A70
:100A1600208E25AE29AF2A7C007D0A1202A38E2BDA
:100A26008F2C632CFF632BFFAF2CEF54FFF58BE568
:080A36002BFF7E008F8DD28E94
:010A3E002295
:0B0B4600C28EC28F758B00758D0022DF
:1006E000E51512031806FB00070E01072102073467
:1006F00003074704075A050000076B43DE027F46E5
:100700007E00120A12120B0E50610515805D53DE39
:10071000FD7F467E00120A12120B0E504E05158008
:100720004A43DE027F467E00120A12120B0E503B35
:100730000515803753DEFD7F467E00120A12120B2C
:100740000E50280515802443DE027F467E00120AE3
:1007500012120B0E50150515801153DEFD7FFA7E27
:1007600000120A12120B0E50020515E515D394055E
:050770004003751500B7
:010775002261
:1009A800E51612031809B70009CA01000009DC435B
:1009B800DE027F287E00120A12120B0E50167516E0
:1009C800012253DEFD7F287E00120A12120B0E5000
:0409D800037516008D
:0109DC0022F8
:1009DD00E51712031809EC0009FF0100000A114385
:1009ED00DE027F5E7E01120A12120B0E5016751773
:1009FD00012253DEFD7F5E7E01120A12120B0E5094
:040A0D000375170056
:010A110022C2
:100AFA0053DEFDC291120966120B2ED2AF439B023E
:040B0A0043870222F9
:0D0B2E0043E94043E90153E9FD43EA202279
:100B1E0053ECDF53E9BF53E9FE53E9FD53EADF22FD
:03003B00020A8531
:100A8500C0D0120B1EA2AF9201C2AF75C7AA75C71F
:100A950055439F80A20192AF43B30253B4FDD0D01A
:010AA500321E
:0300000002059462
:1005940075C7AA75C75575FD5A75C7AA75C7557528
:1005A400FDA5787FE4F6D8FD9000007FFF7E03E48C
:0C05B400F0A3DFFCDEFA7581390205FBC4
:10003E00EC4D6011E8497017ED33EC3304600DE4BC
:10004E00FCFFFEFD22E933E8330470F802028E1243
:10005E00025958046009E4CC248150062850090244
:10006E000298284003020295C0E0EB4A7044B98022
:10007E0006D0E0FB020284EF4E701CBD8008EBFF41
:10008E00EAFEE9FD80EBE98DF0A4FEE5F002012722
:10009E00E9CDF9EAFEEBFFEF89F0A4FCE5F0CE899D
:1000AE00F0A42EFFE435F0CD89F0A42DFEE435F05A
:1000BE008067EF4E7005BD80D780C3EF8BF0A4AC88
:1000CE00F0EE8BF0A42CFCE435F0F8EF8AF0A42CC3
:1000DE00E5F038FCE433CB8DF0A42CFCE5F03BF8D6
:1000EE00EE8AF0A42CFCE5F038F8E433CF89F0A4C6
:1000FE002CFCE5F038CF3400CE89F0A42FFFE5F0CC
:10010E003EFEE433C98DF0A42EFEE5F039CD8AF023
:10011E00A42FFFE5F03EFEE43DFD33D0E0FB50079B
:10012E000BBB000F020298EC2CFCEF33FFEE33FEFC
:06013E00ED33FD0202702A
:10014400020298EC5D046005E85904700302028E13
:10015400120259580460F6EC4860F2EC7004FDFE9B
:10016400FF22C860DB2481C85009C398600250068E
:100174000202959850CAF582E9294B4A7005AB8270
:1001840002028475F0007C1A7880C3EF9BEE9AED2E
:1001940099400DC3EF9BFFEE9AFEED99FDE842F006
:1001A400DC23ACF0D0E0FFD0E0FED0E0FDAB822059
:1001B400E7101BEB60BAEC2CFCEF33FFEE33FEEDE3
:1001C40033FD020270E803F830E705C0F075F00073
:1001D400EF2FFFEE33FEED33FD40B830E7C280AAC7
:1001E40075F020800E75F010800575F0087D007E96
:1001F400007F003392D530D50312030AEC3340104C
:10020400EF33FFEE33FEED33FDEC33FCD5F0ED229E
:0E021400E5F0247EA2D513CC92E7CDCEFF22DA
:10022200EDD2E7CD33EC3392D524814006E4FFFED4
:10023200FDFC22FCE4CFCECDCC24E0501174FF8033
:10024200EDC3CC13CCCD13CDCE13CECF13CF0470D0
:07025200F030D5DE02030AC3
:10025900E9D2E7C933E833F892D5EDD2E7CD33ECEB
:0702690033FC5002B2D52264
:10027000EC30E7100FBF000C0EBE00080DBD0004EF
:100280000BEB6014A2D5EB13FCED92E7FD2274FF9B
:10029000FCFDFEFF22E480F8A2D574FF13FC7D80F4
:0302A000E480EF08
:1005C0000204B6E493A3F8E493A34003F68001F297
:1005D00008DFF48029E493A3F85407240CC8C3333C
:1005E000C4540F4420C8834004F456800146F6DF0B
:1005F000E4800B0102040810204080900AA6E47EEB
:10060000019360BCA3FF543F30E509541FFEE493FF
:10061000A360010ECF54C025E060A840B8E493A3C6
:10062000FAE493A3F8E493A3C8C582C8CAC583CAF1
:10063000F0A3C8C582C8CAC583CADFE9DEE780BEA9
:010AC5000030
:1002A300EF8DF0A4A8F0CF8CF0A428CE8DF0A42E6F
:0202B300FE2229
:1002B500BC000BBE0029EF8DF084FFADF022E4CC2D
:1002C500F875F008EF2FFFEE33FEEC33FCEE9DECF6
:1002D500984005FCEE9DFE0FD5F0E9E4CEFD22ED3C
:1002E500F8F5F0EE8420D21CFEADF075F008EF2F86
:1002F500FFED33FD4007985006D5F0F222C398FD77
:050305000FD5F0EA2213
:0E030A00C3E49FFFE49EFEE49DFDE49CFC2204
:10031800D083D082F8E4937012740193700DA3A374
:1003280093F8740193F5828883E473740293686088
:06033800EFA3A3A380DF88
:00000001FF
